{
  "contractName": "Crowdfunding",
  "abi": [
    {
      "inputs": [
        {
          "internalType": "contract ERC20",
          "name": "_token",
          "type": "address"
        },
        {
          "internalType": "uint256",
          "name": "_fundingGoal",
          "type": "uint256"
        }
      ],
      "stateMutability": "nonpayable",
      "type": "constructor"
    },
    {
      "anonymous": false,
      "inputs": [
        {
          "indexed": false,
          "internalType": "address",
          "name": "backer",
          "type": "address"
        },
        {
          "indexed": false,
          "internalType": "uint256",
          "name": "amount",
          "type": "uint256"
        }
      ],
      "name": "LogStateChange",
      "type": "event"
    },
    {
      "inputs": [],
      "name": "fundingGoal",
      "outputs": [
        {
          "internalType": "uint256",
          "name": "",
          "type": "uint256"
        }
      ],
      "stateMutability": "view",
      "type": "function"
    },
    {
      "inputs": [],
      "name": "owner",
      "outputs": [
        {
          "internalType": "address",
          "name": "",
          "type": "address"
        }
      ],
      "stateMutability": "view",
      "type": "function"
    },
    {
      "inputs": [
        {
          "internalType": "address",
          "name": "",
          "type": "address"
        }
      ],
      "name": "pledges",
      "outputs": [
        {
          "internalType": "uint256",
          "name": "",
          "type": "uint256"
        }
      ],
      "stateMutability": "view",
      "type": "function"
    },
    {
      "inputs": [],
      "name": "token",
      "outputs": [
        {
          "internalType": "contract ERC20",
          "name": "",
          "type": "address"
        }
      ],
      "stateMutability": "view",
      "type": "function"
    },
    {
      "inputs": [],
      "name": "totalRaised",
      "outputs": [
        {
          "internalType": "uint256",
          "name": "",
          "type": "uint256"
        }
      ],
      "stateMutability": "view",
      "type": "function"
    },
    {
      "inputs": [
        {
          "internalType": "uint256",
          "name": "amount",
          "type": "uint256"
        }
      ],
      "name": "pledge",
      "outputs": [],
      "stateMutability": "payable",
      "type": "function"
    },
    {
      "inputs": [],
      "name": "refund",
      "outputs": [],
      "stateMutability": "nonpayable",
      "type": "function"
    },
    {
      "inputs": [
        {
          "internalType": "address",
          "name": "newContract",
          "type": "address"
        }
      ],
      "name": "upgrade",
      "outputs": [],
      "stateMutability": "nonpayable",
      "type": "function"
    }
  ],
  "bytecode": "0x608060405234801561001057600080fd5b506040516106d43803806106d483398101604081905261002f91610060565b600080546001600160a01b039093166001600160a01b0319938416179055600155600480549091163317905561009a565b6000806040838503121561007357600080fd5b82516001600160a01b038116811461008a57600080fd5b6020939093015192949293505050565b61062b806100a96000396000f3fe60806040526004361061007b5760003560e01c80637a3a0e841161004e5780637a3a0e841461010a5780638da5cb5b14610120578063c5c4744c14610158578063fc0c546a1461016e57600080fd5b80630900f01014610080578063343576f5146100a2578063590e1ae3146100e25780637326c9c0146100f7575b600080fd5b34801561008c57600080fd5b506100a061009b36600461052c565b61018e565b005b3480156100ae57600080fd5b506100cf6100bd36600461052c565b60036020526000908152604090205481565b6040519081526020015b60405180910390f35b3480156100ee57600080fd5b506100a0610232565b6100a061010536600461055c565b610355565b34801561011657600080fd5b506100cf60015481565b34801561012c57600080fd5b50600454610140906001600160a01b031681565b6040516001600160a01b0390911681526020016100d9565b34801561016457600080fd5b506100cf60025481565b34801561017a57600080fd5b50600054610140906001600160a01b031681565b6004546001600160a01b031633146101f95760405162461bcd60e51b815260206004820152602360248201527f4f6e6c792074686520636f6e7472616374206f776e65722063616e207570677260448201526261646560e81b60648201526084015b60405180910390fd5b6040516001600160a01b038216904780156108fc02916000818181858888f1935050505015801561022e573d6000803e3d6000fd5b5050565b600154600254106102855760405162461bcd60e51b815260206004820152601960248201527f46756e64696e6720676f616c20686173206265656e206d65740000000000000060448201526064016101f0565b3360008181526003602052604080822054905190929183156108fc02918491818181858888f193505050506102ee5760405162461bcd60e51b815260206004820152600f60248201526e151c985b9cd9995c8819985a5b1959608a1b60448201526064016101f0565b8060026000828254610300919061058b565b90915550503360008181526003602090815260408083208390558051938452908301919091527fb17efb9021fa9ca8af20e978948ffd7f4a293ee2209c325a6c11bfccde0e0d6a91015b60405180910390a150565b6000546040516370a0823160e01b815233600482015282916001600160a01b0316906370a0823190602401602060405180830381865afa15801561039d573d6000803e3d6000fd5b505050506040513d601f19601f820116820180604052508101906103c191906105a2565b101561040f5760405162461bcd60e51b815260206004820152601a60248201527f496e73756666696369656e7420746f6b656e2062616c616e636500000000000060448201526064016101f0565b34156104515760405162461bcd60e51b81526020600482015260116024820152702237903737ba1039b2b7321032ba3432b960791b60448201526064016101f0565b6000546040516323b872dd60e01b8152336004820152306024820152604481018390526001600160a01b03909116906323b872dd906064016020604051808303816000875af11580156104a8573d6000803e3d6000fd5b505050506040513d601f19601f820116820180604052508101906104cc91906105bb565b5080600260008282546104df91906105dd565b909155505033600081815260036020908152604091829020849055815192835282018390527fb17efb9021fa9ca8af20e978948ffd7f4a293ee2209c325a6c11bfccde0e0d6a910161034a565b60006020828403121561053e57600080fd5b81356001600160a01b038116811461055557600080fd5b9392505050565b60006020828403121561056e57600080fd5b5035919050565b634e487b7160e01b600052601160045260246000fd5b60008282101561059d5761059d610575565b500390565b6000602082840312156105b457600080fd5b5051919050565b6000602082840312156105cd57600080fd5b8151801515811461055557600080fd5b600082198211156105f0576105f0610575565b50019056fea26469706673582212203165dc7dfd52834ac3c57e7c7b0830976e9b72d051ff89e9efc7eb907245028b64736f6c634300080d0033",
  "immutableReferences": {},
  "source": "// SPDX-License-Identifier: MIT\r\npragma solidity >0.6.0 <0.9.0;\r\n\r\nimport \"@OpenZeppelin/contracts/token/ERC20/ERC20.sol\";\r\ncontract Crowdfunding {\r\n    ERC20 public token;\r\n    uint256 public fundingGoal;\r\n    uint256 public totalRaised;\r\n    mapping (address => uint256) public pledges;\r\n    event LogStateChange(address backer, uint256 amount);\r\n    address public owner;\r\n\r\n    \r\n    constructor(ERC20 _token, uint256 _fundingGoal) public   {\r\n        token = _token;\r\n        fundingGoal = _fundingGoal;\r\n        owner = msg.sender;\r\n    }\r\n\r\n    function pledge(uint256 amount) public payable {\r\n    require(token.balanceOf(msg.sender) >= amount, \"Insufficient token balance\");\r\n    require(msg.value == 0, \"Do not send ether\");\r\n    token.transferFrom(msg.sender, address(this), amount);\r\n    totalRaised += amount;\r\n    pledges[msg.sender] = amount;\r\n    emit LogStateChange(msg.sender, amount);\r\n}\r\n\r\n\r\n    function refund() public {\r\n        require(totalRaised < fundingGoal, \"Funding goal has been met\");\r\n        uint256 amount = pledges[msg.sender];\r\n        require(payable(msg.sender).send(amount), \"Transfer failed\");\r\n        totalRaised -= amount;\r\n        delete pledges[msg.sender];\r\n        emit LogStateChange(msg.sender, 0);\r\n    }\r\n    \r\n\r\n    function upgrade(address newContract) public {\r\n        require(msg.sender == owner, \"Only the contract owner can upgrade\");\r\n        payable(newContract).transfer(address(this).balance);\r\n\r\n    }\r\n\r\n}",
  "sourcePath": "E:\\CrowdFunding\\contracts\\Crowdfunding.sol",
  "compiler": {
    "name": "solc",
    "version": "0.8.13+commit.abaa5c0e.Emscripten.clang"
  },
  "schemaVersion": "3.4.6",
  "updatedAt": "2023-02-12T16:46:17.343Z",
  "devdoc": {
    "kind": "dev",
    "methods": {},
    "version": 1
  },
  "userdoc": {
    "kind": "user",
    "methods": {},
    "version": 1
  }
}