{
  "contractName": "CrowdFund",
  "abi": [
    {
      "inputs": [
        {
          "internalType": "address",
          "name": "_token",
          "type": "address"
        }
      ],
      "stateMutability": "nonpayable",
      "type": "constructor"
    },
    {
      "anonymous": false,
      "inputs": [
        {
          "indexed": false,
          "internalType": "uint256",
          "name": "id",
          "type": "uint256"
        }
      ],
      "name": "Cancel",
      "type": "event"
    },
    {
      "anonymous": false,
      "inputs": [
        {
          "indexed": false,
          "internalType": "uint256",
          "name": "id",
          "type": "uint256"
        }
      ],
      "name": "Claim",
      "type": "event"
    },
    {
      "anonymous": false,
      "inputs": [
        {
          "indexed": false,
          "internalType": "uint256",
          "name": "id",
          "type": "uint256"
        },
        {
          "indexed": true,
          "internalType": "address",
          "name": "creator",
          "type": "address"
        },
        {
          "indexed": false,
          "internalType": "uint256",
          "name": "goal",
          "type": "uint256"
        },
        {
          "indexed": false,
          "internalType": "uint32",
          "name": "startAt",
          "type": "uint32"
        },
        {
          "indexed": false,
          "internalType": "uint32",
          "name": "endAt",
          "type": "uint32"
        }
      ],
      "name": "Launch",
      "type": "event"
    },
    {
      "anonymous": false,
      "inputs": [
        {
          "indexed": true,
          "internalType": "uint256",
          "name": "id",
          "type": "uint256"
        },
        {
          "indexed": true,
          "internalType": "address",
          "name": "caller",
          "type": "address"
        },
        {
          "indexed": false,
          "internalType": "uint256",
          "name": "amount",
          "type": "uint256"
        }
      ],
      "name": "Pledge",
      "type": "event"
    },
    {
      "anonymous": false,
      "inputs": [
        {
          "indexed": false,
          "internalType": "uint256",
          "name": "id",
          "type": "uint256"
        },
        {
          "indexed": true,
          "internalType": "address",
          "name": "caller",
          "type": "address"
        },
        {
          "indexed": false,
          "internalType": "uint256",
          "name": "amount",
          "type": "uint256"
        }
      ],
      "name": "Refund",
      "type": "event"
    },
    {
      "anonymous": false,
      "inputs": [
        {
          "indexed": true,
          "internalType": "uint256",
          "name": "id",
          "type": "uint256"
        },
        {
          "indexed": true,
          "internalType": "address",
          "name": "caller",
          "type": "address"
        },
        {
          "indexed": false,
          "internalType": "uint256",
          "name": "amount",
          "type": "uint256"
        }
      ],
      "name": "Unpledge",
      "type": "event"
    },
    {
      "inputs": [
        {
          "internalType": "uint256",
          "name": "",
          "type": "uint256"
        }
      ],
      "name": "campaigns",
      "outputs": [
        {
          "internalType": "address",
          "name": "creator",
          "type": "address"
        },
        {
          "internalType": "uint256",
          "name": "goal",
          "type": "uint256"
        },
        {
          "internalType": "uint256",
          "name": "pledged",
          "type": "uint256"
        },
        {
          "internalType": "uint32",
          "name": "startAt",
          "type": "uint32"
        },
        {
          "internalType": "uint32",
          "name": "endAt",
          "type": "uint32"
        },
        {
          "internalType": "bool",
          "name": "claimed",
          "type": "bool"
        }
      ],
      "stateMutability": "view",
      "type": "function"
    },
    {
      "inputs": [],
      "name": "count",
      "outputs": [
        {
          "internalType": "uint256",
          "name": "",
          "type": "uint256"
        }
      ],
      "stateMutability": "view",
      "type": "function"
    },
    {
      "inputs": [
        {
          "internalType": "uint256",
          "name": "",
          "type": "uint256"
        },
        {
          "internalType": "address",
          "name": "",
          "type": "address"
        }
      ],
      "name": "pledgedAmount",
      "outputs": [
        {
          "internalType": "uint256",
          "name": "",
          "type": "uint256"
        }
      ],
      "stateMutability": "view",
      "type": "function"
    },
    {
      "inputs": [],
      "name": "token",
      "outputs": [
        {
          "internalType": "contract IERC20",
          "name": "",
          "type": "address"
        }
      ],
      "stateMutability": "view",
      "type": "function"
    },
    {
      "inputs": [
        {
          "internalType": "uint256",
          "name": "_goal",
          "type": "uint256"
        },
        {
          "internalType": "uint32",
          "name": "_startAt",
          "type": "uint32"
        },
        {
          "internalType": "uint32",
          "name": "_endAt",
          "type": "uint32"
        }
      ],
      "name": "launch",
      "outputs": [],
      "stateMutability": "nonpayable",
      "type": "function"
    },
    {
      "inputs": [
        {
          "internalType": "uint256",
          "name": "_id",
          "type": "uint256"
        }
      ],
      "name": "cancel",
      "outputs": [],
      "stateMutability": "nonpayable",
      "type": "function"
    },
    {
      "inputs": [
        {
          "internalType": "uint256",
          "name": "_id",
          "type": "uint256"
        },
        {
          "internalType": "uint256",
          "name": "_amount",
          "type": "uint256"
        }
      ],
      "name": "pledge",
      "outputs": [],
      "stateMutability": "nonpayable",
      "type": "function"
    },
    {
      "inputs": [
        {
          "internalType": "uint256",
          "name": "_id",
          "type": "uint256"
        },
        {
          "internalType": "uint256",
          "name": "_amount",
          "type": "uint256"
        }
      ],
      "name": "unpledge",
      "outputs": [],
      "stateMutability": "nonpayable",
      "type": "function"
    },
    {
      "inputs": [
        {
          "internalType": "uint256",
          "name": "_id",
          "type": "uint256"
        }
      ],
      "name": "claim",
      "outputs": [],
      "stateMutability": "nonpayable",
      "type": "function"
    },
    {
      "inputs": [
        {
          "internalType": "uint256",
          "name": "_id",
          "type": "uint256"
        }
      ],
      "name": "refund",
      "outputs": [],
      "stateMutability": "nonpayable",
      "type": "function"
    }
  ],
  "bytecode": "0x60a060405234801561001057600080fd5b50604051610ee6380380610ee683398101604081905261002f91610040565b6001600160a01b0316608052610070565b60006020828403121561005257600080fd5b81516001600160a01b038116811461006957600080fd5b9392505050565b608051610e3f6100a7600039600081816101f20152818161037c015281816107ac01528181610a6d0152610c280152610e3f6000f3fe608060405234801561001057600080fd5b506004361061009e5760003560e01c806340e58ee51161006657806340e58ee51461019c578063711853ab146101af578063aa4fb63a146101c2578063fc0c546a146101ed578063fde327be1461022c57600080fd5b806306661abd146100a3578063141961bc146100bf578063278ecde1146101615780632c63f14614610176578063379607f514610189575b600080fd5b6100ac60005481565b6040519081526020015b60405180910390f35b61011f6100cd366004610cd2565b600160208190526000918252604090912080549181015460028201546003909201546001600160a01b039093169290919063ffffffff80821691600160201b810490911690600160401b900460ff1686565b604080516001600160a01b03909716875260208701959095529385019290925263ffffffff9081166060850152166080830152151560a082015260c0016100b6565b61017461016f366004610cd2565b61023f565b005b610174610184366004610d04565b61042b565b610174610197366004610cd2565b610639565b6101746101aa366004610cd2565b610854565b6101746101bd366004610d40565b6109b3565b6100ac6101d0366004610d62565b600260209081526000928352604080842090915290825290205481565b6102147f000000000000000000000000000000000000000000000000000000000000000081565b6040516001600160a01b0390911681526020016100b6565b61017461023a366004610d40565b610b20565b600081815260016020818152604092839020835160c08101855281546001600160a01b03168152928101549183019190915260028101549282019290925260039091015463ffffffff8082166060840152600160201b82041660808301819052600160401b90910460ff16151560a083015242116102f05760405162461bcd60e51b81526020600482015260096024820152681b9bdd08195b99195960ba1b60448201526064015b60405180910390fd5b80602001518160400151106103395760405162461bcd60e51b815260206004820152600f60248201526e1c1b195919d959080f8f4819dbd85b608a1b60448201526064016102e7565b600082815260026020908152604080832033808552925280832080549390555163a9059cbb60e01b81526004810191909152602481018290526001600160a01b037f0000000000000000000000000000000000000000000000000000000000000000169063a9059cbb906044016020604051808303816000875af11580156103c5573d6000803e3d6000fd5b505050506040513d601f19601f820116820180604052508101906103e99190610d9e565b50604080518481526020810183905233917f21e12a7cad0da5928167e1084ea4d5fdf8d9af66657a2543a9ac76a0ca08147791015b60405180910390a2505050565b428263ffffffff1610156104725760405162461bcd60e51b815260206004820152600e60248201526d7374617274206174203c206e6f7760901b60448201526064016102e7565b8163ffffffff168163ffffffff1610156104c25760405162461bcd60e51b8152602060048201526011602482015270195b9908185d080f081cdd185c9d08185d607a1b60448201526064016102e7565b6104cf426276a700610ddd565b8163ffffffff16111561051c5760405162461bcd60e51b815260206004820152601560248201527432b7321030ba101f1036b0bc10323ab930ba34b7b760591b60448201526064016102e7565b600160008082825461052e9190610ddd565b90915550506040805160c081018252338082526020808301878152600084860181815263ffffffff89811660608089018281528b84166080808c0182815260a08d0189815289548a526001808d528f8b209e518f546001600160a01b039091166001600160a01b0319909116178f559a519a8e019a909a55965160028d015591516003909b018054965198511515600160401b0260ff60401b19998716600160201b0267ffffffffffffffff199098169c9096169b909b17959095179690961692909217909755915487519081529384018a90529583019490945292810193909352917f0601cd0d650b473037e838a2696d41e654433d065b3f56b28d1d3302e44a304f910161041e565b600081815260016020526040902080546001600160a01b0316331461068e5760405162461bcd60e51b815260206004820152600b60248201526a3737ba1031b932b0ba37b960a91b60448201526064016102e7565b6003810154600160201b900463ffffffff1642116106da5760405162461bcd60e51b81526020600482015260096024820152681b9bdd08195b99195960ba1b60448201526064016102e7565b8060010154816002015410156107235760405162461bcd60e51b815260206004820152600e60248201526d1c1b195919d959080f0819dbd85b60921b60448201526064016102e7565b6003810154600160401b900460ff16156107695760405162461bcd60e51b815260206004820152600760248201526618db185a5b595960ca1b60448201526064016102e7565b60038101805460ff60401b1916600160401b1790558054600282015460405163a9059cbb60e01b81526001600160a01b03928316600482015260248101919091527f00000000000000000000000000000000000000000000000000000000000000009091169063a9059cbb906044016020604051808303816000875af11580156107f7573d6000803e3d6000fd5b505050506040513d601f19601f8201168201806040525081019061081b9190610d9e565b506040518281527f7bb2b3c10797baccb6f8c4791f1edd6ca2f0d028ee0eda64b01a9a57e3a653f7906020015b60405180910390a15050565b600081815260016020818152604092839020835160c08101855281546001600160a01b0316808252938201549281019290925260028101549382019390935260039092015463ffffffff8082166060850152600160201b8204166080840152600160401b900460ff16151560a083015233146109005760405162461bcd60e51b815260206004820152600b60248201526a3737ba1031b932b0ba37b960a91b60448201526064016102e7565b806060015163ffffffff1642106109435760405162461bcd60e51b81526020600482015260076024820152661cdd185c9d195960ca1b60448201526064016102e7565b600082815260016020819052604080832080546001600160a01b03191681559182018390556002820192909255600301805468ffffffffffffffffff19169055517f8bf30e7ff26833413be5f69e1d373744864d600b664204b4a2f9844a8eedb9ed906108489084815260200190565b60008281526001602052604090206003810154600160201b900463ffffffff16421115610a0a5760405162461bcd60e51b8152602060048201526005602482015264195b99195960da1b60448201526064016102e7565b81816002016000828254610a1e9190610df6565b9091555050600083815260026020908152604080832033845290915281208054849290610a4c908490610df6565b909155505060405163a9059cbb60e01b8152336004820152602481018390527f00000000000000000000000000000000000000000000000000000000000000006001600160a01b03169063a9059cbb906044016020604051808303816000875af1158015610abe573d6000803e3d6000fd5b505050506040513d601f19601f82011682018060405250810190610ae29190610d9e565b50604051828152339084907f2eeeab891b26a214d1b25749f88a406bdea852bd8c9bfda977e0ef8114c180ba906020015b60405180910390a3505050565b6000828152600160205260409020600381015463ffffffff16421015610b765760405162461bcd60e51b815260206004820152600b60248201526a1b9bdd081cdd185c9d195960aa1b60448201526064016102e7565b6003810154600160201b900463ffffffff16421115610bbf5760405162461bcd60e51b8152602060048201526005602482015264195b99195960da1b60448201526064016102e7565b81816002016000828254610bd39190610ddd565b9091555050600083815260026020908152604080832033845290915281208054849290610c01908490610ddd565b90915550506040516323b872dd60e01b8152336004820152306024820152604481018390527f00000000000000000000000000000000000000000000000000000000000000006001600160a01b0316906323b872dd906064016020604051808303816000875af1158015610c79573d6000803e3d6000fd5b505050506040513d601f19601f82011682018060405250810190610c9d9190610d9e565b50604051828152339084907f06bdb975df800a73232998e71ed585d536222f1dfeaa622d7f62a23ada686c8290602001610b13565b600060208284031215610ce457600080fd5b5035919050565b803563ffffffff81168114610cff57600080fd5b919050565b600080600060608486031215610d1957600080fd5b83359250610d2960208501610ceb565b9150610d3760408501610ceb565b90509250925092565b60008060408385031215610d5357600080fd5b50508035926020909101359150565b60008060408385031215610d7557600080fd5b8235915060208301356001600160a01b0381168114610d9357600080fd5b809150509250929050565b600060208284031215610db057600080fd5b81518015158114610dc057600080fd5b9392505050565b634e487b7160e01b600052601160045260246000fd5b80820180821115610df057610df0610dc7565b92915050565b81810381811115610df057610df0610dc756fea2646970667358221220195fc8a81ecd031c537f01bd2fb4fadab69fc9c6fbf5e4f0dd0339c156c883e564736f6c63430008110033",
  "immutableReferences": {
    "62": [
      {
        "length": 32,
        "start": 498
      },
      {
        "length": 32,
        "start": 892
      },
      {
        "length": 32,
        "start": 1964
      },
      {
        "length": 32,
        "start": 2669
      },
      {
        "length": 32,
        "start": 3112
      }
    ]
  },
  "source": "// SPDX-License-Identifier: MIT\r\npragma solidity ^0.8.17;\r\n\r\nimport \"./IERC20.sol\";\r\n\r\n\r\ncontract CrowdFund {\r\n    event Launch(\r\n        uint id,\r\n        address indexed creator,\r\n        uint goal,\r\n        uint32 startAt,\r\n        uint32 endAt\r\n    );\r\n    event Cancel(uint id);\r\n    event Pledge(uint indexed id, address indexed caller, uint amount);\r\n    event Unpledge(uint indexed id, address indexed caller, uint amount);\r\n    event Claim(uint id);\r\n    event Refund(uint id, address indexed caller, uint amount);\r\n\r\n    struct Campaign {\r\n        address creator;\r\n        uint goal;\r\n        uint pledged;\r\n        uint32 startAt;\r\n        uint32 endAt;\r\n        bool claimed;\r\n    }\r\n\r\n    IERC20 public immutable token;\r\n    uint public count;\r\n    mapping(uint => Campaign) public campaigns;\r\n    mapping(uint => mapping(address => uint)) public pledgedAmount;\r\n\r\n    constructor(address _token) {\r\n        token = IERC20(_token);\r\n    }\r\n\r\n    function launch(uint _goal, uint32 _startAt, uint32 _endAt) external {\r\n        require(_startAt >= block.timestamp, \"start at < now\");\r\n        require(_endAt >= _startAt, \"end at < start at\");\r\n        require(_endAt <= block.timestamp + 90 days, \"end at > max duration\");\r\n\r\n        count += 1;\r\n        campaigns[count] = Campaign({\r\n            creator: msg.sender,\r\n            goal: _goal,\r\n            pledged: 0,\r\n            startAt: _startAt,\r\n            endAt: _endAt,\r\n            claimed: false\r\n        });\r\n\r\n        emit Launch(count, msg.sender, _goal, _startAt, _endAt);\r\n    }\r\n\r\n    function cancel(uint _id) external {\r\n        Campaign memory campaign = campaigns[_id];\r\n        require(campaign.creator == msg.sender, \"not creator\");\r\n        require(block.timestamp < campaign.startAt, \"started\");\r\n\r\n        delete campaigns[_id];\r\n        emit Cancel(_id);\r\n    }\r\n\r\n    function pledge(uint _id, uint _amount) external {\r\n        Campaign storage campaign = campaigns[_id];\r\n        require(block.timestamp >= campaign.startAt, \"not started\");\r\n        require(block.timestamp <= campaign.endAt, \"ended\");\r\n\r\n        campaign.pledged += _amount;\r\n        pledgedAmount[_id][msg.sender] += _amount;\r\n        token.transferFrom(msg.sender, address(this), _amount);\r\n\r\n        emit Pledge(_id, msg.sender, _amount);\r\n    }\r\n\r\n    function unpledge(uint _id, uint _amount) external {\r\n        Campaign storage campaign = campaigns[_id];\r\n        require(block.timestamp <= campaign.endAt, \"ended\");\r\n\r\n        campaign.pledged -= _amount;\r\n        pledgedAmount[_id][msg.sender] -= _amount;\r\n        token.transfer(msg.sender, _amount);\r\n\r\n        emit Unpledge(_id, msg.sender, _amount);\r\n    }\r\n\r\n    function claim(uint _id) external {\r\n        Campaign storage campaign = campaigns[_id];\r\n        require(campaign.creator == msg.sender, \"not creator\");\r\n        require(block.timestamp > campaign.endAt, \"not ended\");\r\n        require(campaign.pledged >= campaign.goal, \"pledged < goal\");\r\n        require(!campaign.claimed, \"claimed\");\r\n\r\n        campaign.claimed = true;\r\n        token.transfer(campaign.creator, campaign.pledged);\r\n\r\n        emit Claim(_id);\r\n    }\r\n\r\n    function refund(uint _id) external {\r\n        Campaign memory campaign = campaigns[_id];\r\n        require(block.timestamp > campaign.endAt, \"not ended\");\r\n        require(campaign.pledged < campaign.goal, \"pledged >= goal\");\r\n\r\n        uint bal = pledgedAmount[_id][msg.sender];\r\n        pledgedAmount[_id][msg.sender] = 0;\r\n        token.transfer(msg.sender, bal);\r\n\r\n        emit Refund(_id, msg.sender, bal);\r\n    }\r\n}\r\n",
  "sourcePath": "E:\\CrowdFunding\\contracts\\CrowdFund.sol",
  "compiler": {
    "name": "solc",
    "version": "0.8.17+commit.8df45f5f.Emscripten.clang"
  },
  "schemaVersion": "3.4.6",
  "updatedAt": "2023-02-21T18:05:00.844Z",
  "devdoc": {
    "kind": "dev",
    "methods": {},
    "version": 1
  },
  "userdoc": {
    "kind": "user",
    "methods": {},
    "version": 1
  }
}